S014000043616C63756C61746F7230322E73726563A4
S11300000C942A000C943F000C943F000C943F0085
S11300100C943F000C943F000C943F000C943F0060
S11300200C943F000C943F000C943F000C943F0050
S11300300C943F000C943F000C943F000C943F0040
S11300400C943F000C943F000C943F000C943F0030
S11300500C943F0011241FBECFE5D8E0DEBFCDBF16
S113006010E0A0E6B0E0EAE3F9E002C005900D92EA
S1130070A037B107D9F70E94D4030C949B040C94C5
S11300800000AF92BF92CF92DF92EF92FF920F9354
S11300901F93CF93DF93EC018B017A016901A12CAB
S11300A0B12C88898B1500F1FE01EB0DF11D6081E7
S11300B0862F8D7F8D3221F086ED860F823018F4E5
S11300C0D6016C9308C0B1E0AB1629F070E0C8010A
S11300D00E94220407C0608170E0C7010E942204CC
S11300E0AA24A394B394DDCFDF91CF911F910F91F4
S11300F0FF90EF90DF90CF90BF90AF900895FC01F8
S1130100808920E030E090E06AE0629FA001639F74
S1130110500D11249A0120533109DF01A90FB11D9B
S11301204C91240F311D9F5F891778F7C9010895F9
S1130130EF92FF921F93CF93DF9300D000D0CDB7FF
S1130140DEB79A8389837C836B83142FCE01019657
S11301500E947F007C01CE0103960E947F00BC01B7
S11301601B32A1F050F41A32C9F4E69EC001E79E96
S1130170900DF69E900D112413C01D3259F01F32BC
S113018069F4C7010E942C04CB010AC0C701860F81
S1130190971F06C0C701861B970B02C080E090E042
S11301A00F900F900F900F90DF91CF911F91FF90C0
S11301B0EF900895442379F1413009F05FC0813014
S11301C079F028F08230A9F08330E1F008952AB361
S11301D081E090E001C0880F6A95EAF7822B2CC079
S11301E027B381E090E001C0880F6A95EAF7822B7B
S11301F02EC024B381E090E001C0880F6A95EAF72D
S1130200822B30C021B381E090E001C0880F6A9551
S1130210EAF7822B32C0813089F028F08230C9F0AD
S1130220833011F108952AB381E090E001C0880F72
S11302306A95EAF7809582238ABB089527B381E003
S113024090E001C0880F6A95EAF78095822387BB06
S1130250089524B381E090E001C0880F6A95EAF71D
S11302608095822384BB089521B381E090E001C08E
S1130270880F6A95EAF78095822381BB0895442309
S113028079F1413009F05FC0813079F028F0823093
S1130290A9F08330E1F008952BB381E090E001C030
S11302A0880F6A95EAF7822B2CC028B381E090E08E
S11302B001C0880F6A95EAF7822B2EC025B381E02E
S11302C090E001C0880F6A95EAF7822B30C022B310
S11302D081E090E001C0880F6A95EAF7822B32C072
S11302E0813089F028F08230C9F0833011F108950B
S11302F02BB381E090E001C0880F6A95EAF78095FE
S113030082238BBB089528B381E090E001C0880F5D
S11303106A95EAF78095822388BB089525B381E026
S113032090E001C0880F6A95EAF78095822385BB27
S1130330089522B381E090E001C0880F6A95EAF73E
S11303408095822382BB0895FA01813041F028F020
S1130350823039F0833039F0089589B305C086B30B
S113036003C083B301C080B390E002C09595879524
S11303706A95E2F7817080830895813081F028F0D6
S11303808230B9F08330F9F008952BB381E090E026
S113039001C0880F6A95EAF7822B8BBB089528B3B6
S11303A081E090E001C0880F6A95EAF7822B88BB50
S11303B0089525B381E090E001C0880F6A95EAF7BB
S11303C0822B85BB089522B381E090E001C0880FA1
S11303D06A95EAF7822B82BB089541E060E083E0EE
S11303E00E94DA0041E061E083E00E94DA0041E02B
S11303F062E083E00E94DA0041E063E083E00E946F
S1130400DA0040E064E083E00E94DA0040E065E066
S113041083E00E94DA0040E066E083E00E94DA00B4
S113042040E067E083E00E94DA0064E083E00E9439
S1130430BD0165E083E00E94BD0166E083E00E94A7
S1130440BD0167E083E00E94BD0141E060E083E01C
S11304500E943F0141E061E083E00E943F0141E0EE
S113046062E083E00E943F0141E063E083E00C949A
S11304703F01BF92CF92DF92EF92FF920F931F93AF
S1130480CF93DF931F92CDB7DEB7198280E6E82EB3
S113049080E0F82EB12C10E040E0612F83E00E9450
S11304A03F01670104E0AE014F5F5F4F602F83E0BF
S11304B00E94A4018981811113C0F601B080898151
S11304C0811108C0AE014F5F5F4F602F83E00E942F
S11304D0A401F5CF8FE39CE90197F1F700C0000078
S11304E00F5F94E0C90ED11C0830E9F641E0612F9A
S11304F083E00E943F011F5FEFEFEE1AFE0A143003
S113050059F68B2D0F90DF91CF911F910F91FF9092
S1130510EF90DF90CF90BF900895CF93C82F40E025
S113052061E081E00E943F0140E062E081E00E94DE
S11305303F0140E063E081E00E943F018BB39C2FC8
S1130540907F8F70892B8BBB41E063E081E00E9438
S11305503F018FE99FE00197F1F700C0000040E000
S113056063E081E00E943F012BB330E1C39FC001EF
S11305701124922F9F70892B8BBB41E063E081E0B3
S11305800E943F018FE99FE00197F1F700C000004E
S113059040E063E081E00E943F018FE19EE4019727
S11305A0F1F700C00000CF91089541E061E081E0DF
S11305B00E94DA0041E062E081E00E94DA0041E05A
S11305C063E081E00E94DA0041E064E080E00E94A0
S11305D0DA0041E065E080E00E94DA0041E066E094
S11305E080E00E94DA0041E067E080E00E94DA00E7
S11305F02FEF81EE94E0215080409040E1F700C05D
S1130600000083E30E948D0282E30E948D0288E24F
S11306100E948D028CE00E948D0281E00E948D0276
S113062086E00E948D0282E00C948D02CF93C82F45
S113063041E061E081E00E943F0140E062E081E04E
S11306400E943F0140E063E081E00E943F018BB3E0
S11306509C2F907F8F70892B8BBB41E063E081E0FE
S11306600E943F018FE99FE00197F1F700C000006D
S113067040E063E081E00E943F012BB330E1C39F7F
S1130680C0011124922F9F70892B8BBB41E063E042
S113069081E00E943F018FE99FE00197F1F700C0DC
S11306A0000040E063E081E00E943F018FE19EE4AE
S11306B00197F1F700C00000CF910895CF93DF9325
S11306C000D0CDB7DEB790E8998390EC9A83FE0111
S11306D0E80FF11D8181860F0F900F90DF91CF916C
S11306E00C948D024F925F926F927F928F929F92A1
S11306F0AF92BF92CF92DF92EF92FF924B015C01D7
S113070097FF0BC08DE20E941603B094A0949094BE
S11307108094811C911CA11CB11C61E070E080E0FC
S113072090E03AE0432E512C612C712C81149104F9
S1130730A104B104A9F0AAE0B0E09B01AC010E94BD
S11307405F046B017C01C501B401A30192010E9405
S113075040046C0D7D1D8E1D9F1D49015A01E6CF7D
S11307602AE0C22ED12CE12CF12C623071058105D6
S113077091056CF0A70196010E94400449015A01B9
S113078080E3860F0E941603B401C501EECFFF90EB
S1130790EF90DF90CF90BF90AF909F908F907F901D
S11307A06F905F904F900895CF93DF93CDB7DEB7EE
S11307B0E4970FB6F894DEBF0FBECDBF0E94D502FA
S11307C00E94ED011CAACE0183960E941E04CE0154
S11307D042960E941E04CE0101960E941E040E94AD
S11307E03902182F0E9416031D3309F59E012C5C53
S11307F03F4FAE014F5F5F4FBE016E5E7F4FCE0134
S113080083960E9441004CA9BE016F5F7F4FCE01C9
S113081042960E949800182F65E081E00E945E03D2
S1130820612F70E080E090E00E947203D8CF612FC6
S113083070E0CE0183960E942204D1CF2FEFFC01F9
S1130840208B0895FC0120892F3028F42F5F208B02
S1130850E20FF11D60830895AA1BBB1B51E107C081
S1130860AA1FBB1FA617B70710F0A61BB70B881F3C
S1130870991F5A95A9F780959095BC01CD010895CB
S1130880052E97FB1EF400940E94570457FD07D0D1
S11308900E946A0407FC03D04EF40C94570450954C
S11308A04095309521953F4F4F4F5F4F0895909558
S11308B08095709561957F4F8F4F9F4F08950E944B
S11308C08C04A59F900DB49F900DA49F800D911D45
S11308D011240895A1E21A2EAA1BBB1BFD010DC011
S11308E0AA1FBB1FEE1FFF1FA217B307E407F507DC
S11308F020F0A21BB30BE40BF50B661F771F881FB8
S1130900991F1A9469F760957095809590959B014D
S1130910AC01BD01CF010895A29FB001B39FC001F6
S1130920A39F700D811D1124911DB29F700D811D17
S10D09301124911D0895F894FFCFDF
S113093A3738392F3435362A3132332D63303D2B4B
S9030000FC
