S014000043616C63756C61746F7230322E73726563A4
S11300000C942A000C943F000C943F000C943F0085
S11300100C943F000C943F000C943F000C943F0060
S11300200C943F000C943F000C943F000C943F0050
S11300300C943F000C943F000C943F000C943F0040
S11300400C943F000C943F000C943F000C943F0030
S11300500C943F0011241FBECFE5D8E0DEBFCDBF16
S113006010E0A0E6B0E0EAEDF9E002C005900D92E0
S1130070A037B107D9F70E943E040C94EB040C940A
S113008000009F92AF92BF92CF92DF92EF92FF92C5
S11300900F931F93CF93DF935C016B017A01890166
S11300A0912CC0E0D1E08C2F90E0F501E80FF91F0E
S11300B06081262F2D7F2D3221F026ED260F223050
S11300C018F4F80160830BC0992021F0F1E09F122D
S11300D00FC005C070E0C6010E948C0409C0F50180
S11300E0E80FF91F608170E0C7010E948C049D2E07
S11300F0CF5FF50180898C17B0F6DF91CF911F9106
S11301000F91FF90EF90DF90CF90BF90AF909F90B2
S11301100895DC0150966C91509780E090E020E0C7
S1130120AC01440F551F880F991F880F991F880F22
S1130130991F840F951FC097FD01E20FF11D3081B7
S1130140830F911D2F5F621758F70895EF92FF9266
S11301501F93CF93DF9300D000D0CDB7DEB79A833F
S113016089837C836B83142FCE0101960E948900BE
S11301707C01CE0103960E948900BC011B3249F028
S113018018F41A3271F01AC01D3239F01F3289F096
S113019015C0C701860F971F13C0C701861B970B95
S11301A00FC0E69EC001E79E900DF69E900D1124AF
S11301B007C0C7010E949604CB0102C080E090E012
S11301C00F900F900F900F90DF91CF911F91FF90A0
S11301D0EF9008954423B9F1413009F06BC08130A8
S11301E089F028F08230C9F0833011F108952AB3E0
S11301F081E090E002C0880F991F6A95E2F7822B94
S11302008ABB089527B381E090E002C0880F991F4C
S11302106A95E2F7822B87BB089524B381E090E0CE
S113022002C0880F991F6A95E2F7822B84BB089558
S113023021B381E090E002C0880F991F6A95E2F72C
S1130240822B81BB0895813091F028F08230D9F05F
S1130250833029F108952AB381E090E002C0880F29
S1130260991F6A95E2F7809582238ABB089527B384
S113027081E090E002C0880F991F6A95E2F78095AB
S1130280822387BB089524B381E090E002C0880FE5
S1130290991F6A95E2F78095822384BB089521B360
S11302A081E090E002C0880F991F6A95E2F780957B
S11302B0822381BB08954423B9F1413009F06BC016
S11302C0813089F028F08230C9F0833011F108952B
S11302D02BB381E090E002C0880F991F6A95E2F782
S11302E0822B8BBB089528B381E090E002C0880F75
S11302F0991F6A95E2F7822B88BB089525B381E0A4
S113030090E002C0880F991F6A95E2F7822B85BBA3
S1130310089522B381E090E002C0880F991F6A9586
S1130320E2F7822B82BB0895813091F028F082306D
S1130330D9F0833029F108952BB381E090E002C015
S1130340880F991F6A95E2F7809582238BBB0895E5
S113035028B381E090E002C0880F991F6A95E2F704
S11303608095822388BB089525B381E090E002C084
S1130370880F991F6A95E2F78095822385BB0895BB
S113038022B381E090E002C0880F991F6A95E2F7DA
S11303908095822382BB0895813089F028F08230D1
S11303A0C9F0833011F1089589B390E002C09595A6
S11303B087956A95E2F78170FA018083089586B380
S11303C090E002C0959587956A95E2F78170FA01ED
S11303D08083089583B390E002C0959587956A95CC
S11303E0E2F78170FA018083089580B390E002C03F
S11303F0959587956A95E2F78170FA01808308954F
S1130400813089F028F08230C9F0833011F10895E9
S11304102BB381E090E002C0880F991F6A95E2F740
S1130420822B8BBB089528B381E090E002C0880F33
S1130430991F6A95E2F7822B88BB089525B381E062
S113044090E002C0880F991F6A95E2F7822B85BB62
S1130450089522B381E090E002C0880F991F6A9545
S1130460E2F7822B82BB089541E060E083E00E94C2
S1130470EA0041E061E083E00E94EA0041E062E0DA
S113048083E00E94EA0041E063E083E00E94EA0026
S113049040E064E083E00E94EA0040E065E083E03D
S11304A00E94EA0040E066E083E00E94EA0040E047
S11304B067E083E00E94EA0064E083E00E940002B7
S11304C065E083E00E94000266E083E00E9400028F
S11304D067E083E00E94000241E060E083E00E9464
S11304E05B0141E061E083E00E945B0141E062E086
S11304F083E00E945B0141E063E083E00E945B01D2
S11305000895BF92CF92DF92EF92FF920F931F93C1
S1130510CF93DF931F92CDB7DEB719820F2EF0E68B
S1130520CF2EF0E0DF2EF02DB12C00E040E0602F64
S113053083E00E945B01760114E0AE014F5F5F4FE0
S1130540612F83E00E94CC018981811112C0F701DF
S1130550B080AE014F5F5F4F612F83E00E94CC01FA
S113056089818823B1F38FE39CE90197F1F700C0F7
S113057000001F5F94E0E90EF11C1830F1F641E031
S1130580602F83E00E945B010F5FEFEFCE1ADE0A5B
S1130590043061F68B2D0F90DF91CF911F910F9155
S11305A0FF90EF90DF90CF90BF900895CF93C82F26
S11305B040E061E081E00E945B0140E062E081E0B4
S11305C00E945B0140E063E081E00E945B018BB329
S11305D09C2F907F8F70892B8BBB41E063E081E07F
S11305E00E945B018FE99FE00197F1F700C00000D2
S11305F040E063E081E00E945B012BB330E1C39FE4
S1130600C0011124922F9F70892B8BBB41E063E0C2
S113061081E00E945B018FE99FE00197F1F700C040
S1130620000040E063E081E00E945B018FE19EE412
S11306300197F1F700C00000CF91089541E061E017
S113064081E00E94EA0041E062E081E00E94EA0069
S113065041E063E081E00E94EA0041E064E080E080
S11306600E94EA0041E065E080E00E94EA0041E087
S113067066E080E00E94EA0041E067E080E00E94DA
S1130680EA002FEF81EE94E0215080409040E1F7A2
S113069000C0000083E30E94D60282E30E94D602D7
S11306A088E20E94D6028CE00E94D60281E00E9479
S11306B0D60286E00E94D60282E00E94D602089505
S11306C0CF93C82F41E061E081E00E945B0140E0EC
S11306D062E081E00E945B0140E063E081E00E940F
S11306E05B018BB39C2F907F8F70892B8BBB41E078
S11306F063E081E00E945B018FE99FE00197F1F7DD
S113070000C0000040E063E081E00E945B012BB385
S113071030E1C39FC0011124922F9F70892B8BBBA2
S113072041E063E081E00E945B018FE99FE0019773
S1130730F1F700C0000040E063E081E00E945B014B
S11307408FE19EE40197F1F700C00000CF91089576
S1130750CF93DF9300D0CDB7DEB790E8998390ECC8
S11307609A83FE01E80FF11D8181860F0E94D60253
S11307700F900F90DF91CF9108954F925F926F92F7
S11307807F928F929F92AF92BF92CF92DF92EF921D
S1130790FF926B017C0199235CF48DE20E9460035B
S11307A0F094E094D094C094C11CD11CE11CF11CC1
S11307B01C141D041E041F040CF053C061E070E0FF
S11307C080E090E00F2EFAE08F2E912CA12CB12C1A
S11307D0F02DDC01CB01880F991FAA1FBB1F2C0130
S11307E03D01440C551C661C771C440C551C661CAE
S11307F0771C480E591E6A1E7B1EC701B601A5014F
S113080094010E94AA04640D751D861D971DC22EB5
S1130810D32EE42EF52E1C141D041E041F04CCF24A
S11308206230710581059105E4F00F2EFAE08F2EF8
S1130830912CA12CB12CF02DA50194010E94AA04A5
S1130840C22ED32EE42EF52E80E3860F0E94600381
S11308506C2D7D2D8E2D9F2D6230710581059105A6
S11308605CF7FF90EF90DF90CF90BF90AF909F9098
S11308708F907F906F905F904F900895CF93DF9308
S1130880CDB7DEB7E4970FB6F894DEBF0FBECDBF89
S11308900E941E030E9434021982CE0102960E9415
S11308A08804CE0143960E948804CE0184960E9457
S11308B088040E948102182F0E9460031D3309F5E9
S11308C09E012F5F3F4FAE014C5D5F4FBE016D5ED9
S11308D07F4FCE0102960E9441004981BE016C5DAA
S11308E07F4FCE0143960E94A600182F65E081E059
S11308F00E94A803612F70E080E090E00E94BD0395
S1130900D8CF612F70E0CE0102960E948C04D1CF23
S11309102FEFFC01208B0895FC0120892F3028F44F
S11309202F5F208BE20FF11D60830895AA1BBB1B70
S113093051E107C0AA1FBB1FA617B70710F0A61BDB
S1130940B70B881F991F5A95A9F780959095BC01FC
S1130950CD010895052E97FB1EF400940E94C10456
S113096057FD07D00E94C90407FC03D04EF40C9431
S1130970C10450954095309521953F4F4F4F5F4F9F
S1130980089590958095709561957F4F8F4F9F4FF7
S11309900895A1E21A2EAA1BBB1BFD010DC0AA1FBC
S11309A0BB1FEE1FFF1FA217B307E407F50720F0D4
S11309B0A21BB30BE40BF50B661F771F881F991F4F
S11309C01A9469F760957095809590959B01AC0198
S10D09D0BD01CF010895F894FFCF94
S11309DA3738392F3435362A3132332D63303D2BAB
S9030000FC
